{
  "contractName": "TokenManager",
  "abi": [
    {
      "constant": true,
      "inputs": [],
      "name": "hasInitialized",
      "outputs": [
        {
          "name": "",
          "type": "bool"
        }
      ],
      "payable": false,
      "stateMutability": "view",
      "type": "function"
    },
    {
      "constant": true,
      "inputs": [],
      "name": "MAX_VESTINGS_PER_ADDRESS",
      "outputs": [
        {
          "name": "",
          "type": "uint256"
        }
      ],
      "payable": false,
      "stateMutability": "view",
      "type": "function"
    },
    {
      "constant": true,
      "inputs": [
        {
          "name": "_script",
          "type": "bytes"
        }
      ],
      "name": "getEVMScriptExecutor",
      "outputs": [
        {
          "name": "",
          "type": "address"
        }
      ],
      "payable": false,
      "stateMutability": "view",
      "type": "function"
    },
    {
      "constant": true,
      "inputs": [],
      "name": "getRecoveryVault",
      "outputs": [
        {
          "name": "",
          "type": "address"
        }
      ],
      "payable": false,
      "stateMutability": "view",
      "type": "function"
    },
    {
      "constant": true,
      "inputs": [],
      "name": "appId",
      "outputs": [
        {
          "name": "",
          "type": "bytes32"
        }
      ],
      "payable": false,
      "stateMutability": "view",
      "type": "function"
    },
    {
      "constant": true,
      "inputs": [],
      "name": "ISSUE_ROLE",
      "outputs": [
        {
          "name": "",
          "type": "bytes32"
        }
      ],
      "payable": false,
      "stateMutability": "view",
      "type": "function"
    },
    {
      "constant": true,
      "inputs": [],
      "name": "getInitializationBlock",
      "outputs": [
        {
          "name": "",
          "type": "uint256"
        }
      ],
      "payable": false,
      "stateMutability": "view",
      "type": "function"
    },
    {
      "constant": true,
      "inputs": [
        {
          "name": "",
          "type": "address"
        }
      ],
      "name": "vestingsLengths",
      "outputs": [
        {
          "name": "",
          "type": "uint256"
        }
      ],
      "payable": false,
      "stateMutability": "view",
      "type": "function"
    },
    {
      "constant": false,
      "inputs": [
        {
          "name": "_token",
          "type": "address"
        }
      ],
      "name": "transferToVault",
      "outputs": [],
      "payable": false,
      "stateMutability": "nonpayable",
      "type": "function"
    },
    {
      "constant": true,
      "inputs": [
        {
          "name": "_sender",
          "type": "address"
        },
        {
          "name": "_role",
          "type": "bytes32"
        },
        {
          "name": "_params",
          "type": "uint256[]"
        }
      ],
      "name": "canPerform",
      "outputs": [
        {
          "name": "",
          "type": "bool"
        }
      ],
      "payable": false,
      "stateMutability": "view",
      "type": "function"
    },
    {
      "constant": true,
      "inputs": [],
      "name": "getEVMScriptRegistry",
      "outputs": [
        {
          "name": "",
          "type": "address"
        }
      ],
      "payable": false,
      "stateMutability": "view",
      "type": "function"
    },
    {
      "constant": true,
      "inputs": [],
      "name": "ASSIGN_ROLE",
      "outputs": [
        {
          "name": "",
          "type": "bytes32"
        }
      ],
      "payable": false,
      "stateMutability": "view",
      "type": "function"
    },
    {
      "constant": true,
      "inputs": [],
      "name": "BURN_ROLE",
      "outputs": [
        {
          "name": "",
          "type": "bytes32"
        }
      ],
      "payable": false,
      "stateMutability": "view",
      "type": "function"
    },
    {
      "constant": true,
      "inputs": [],
      "name": "kernel",
      "outputs": [
        {
          "name": "",
          "type": "address"
        }
      ],
      "payable": false,
      "stateMutability": "view",
      "type": "function"
    },
    {
      "constant": true,
      "inputs": [],
      "name": "isPetrified",
      "outputs": [
        {
          "name": "",
          "type": "bool"
        }
      ],
      "payable": false,
      "stateMutability": "view",
      "type": "function"
    },
    {
      "constant": true,
      "inputs": [],
      "name": "MINT_ROLE",
      "outputs": [
        {
          "name": "",
          "type": "bytes32"
        }
      ],
      "payable": false,
      "stateMutability": "view",
      "type": "function"
    },
    {
      "constant": true,
      "inputs": [],
      "name": "maxAccountTokens",
      "outputs": [
        {
          "name": "",
          "type": "uint256"
        }
      ],
      "payable": false,
      "stateMutability": "view",
      "type": "function"
    },
    {
      "constant": true,
      "inputs": [],
      "name": "REVOKE_VESTINGS_ROLE",
      "outputs": [
        {
          "name": "",
          "type": "bytes32"
        }
      ],
      "payable": false,
      "stateMutability": "view",
      "type": "function"
    },
    {
      "constant": true,
      "inputs": [],
      "name": "token",
      "outputs": [
        {
          "name": "",
          "type": "address"
        }
      ],
      "payable": false,
      "stateMutability": "view",
      "type": "function"
    },
    {
      "anonymous": false,
      "inputs": [
        {
          "indexed": true,
          "name": "receiver",
          "type": "address"
        },
        {
          "indexed": false,
          "name": "vestingId",
          "type": "uint256"
        },
        {
          "indexed": false,
          "name": "amount",
          "type": "uint256"
        }
      ],
      "name": "NewVesting",
      "type": "event"
    },
    {
      "anonymous": false,
      "inputs": [
        {
          "indexed": true,
          "name": "receiver",
          "type": "address"
        },
        {
          "indexed": false,
          "name": "vestingId",
          "type": "uint256"
        },
        {
          "indexed": false,
          "name": "nonVestedAmount",
          "type": "uint256"
        }
      ],
      "name": "RevokeVesting",
      "type": "event"
    },
    {
      "anonymous": false,
      "inputs": [
        {
          "indexed": true,
          "name": "executor",
          "type": "address"
        },
        {
          "indexed": false,
          "name": "script",
          "type": "bytes"
        },
        {
          "indexed": false,
          "name": "input",
          "type": "bytes"
        },
        {
          "indexed": false,
          "name": "returnData",
          "type": "bytes"
        }
      ],
      "name": "ScriptResult",
      "type": "event"
    },
    {
      "anonymous": false,
      "inputs": [
        {
          "indexed": true,
          "name": "vault",
          "type": "address"
        },
        {
          "indexed": true,
          "name": "token",
          "type": "address"
        },
        {
          "indexed": false,
          "name": "amount",
          "type": "uint256"
        }
      ],
      "name": "RecoverToVault",
      "type": "event"
    },
    {
      "constant": false,
      "inputs": [
        {
          "name": "_token",
          "type": "address"
        },
        {
          "name": "_transferable",
          "type": "bool"
        },
        {
          "name": "_maxAccountTokens",
          "type": "uint256"
        }
      ],
      "name": "initialize",
      "outputs": [],
      "payable": false,
      "stateMutability": "nonpayable",
      "type": "function"
    },
    {
      "constant": false,
      "inputs": [
        {
          "name": "_receiver",
          "type": "address"
        },
        {
          "name": "_amount",
          "type": "uint256"
        }
      ],
      "name": "mint",
      "outputs": [],
      "payable": false,
      "stateMutability": "nonpayable",
      "type": "function"
    },
    {
      "constant": false,
      "inputs": [
        {
          "name": "_amount",
          "type": "uint256"
        }
      ],
      "name": "issue",
      "outputs": [],
      "payable": false,
      "stateMutability": "nonpayable",
      "type": "function"
    },
    {
      "constant": false,
      "inputs": [
        {
          "name": "_receiver",
          "type": "address"
        },
        {
          "name": "_amount",
          "type": "uint256"
        }
      ],
      "name": "assign",
      "outputs": [],
      "payable": false,
      "stateMutability": "nonpayable",
      "type": "function"
    },
    {
      "constant": false,
      "inputs": [
        {
          "name": "_holder",
          "type": "address"
        },
        {
          "name": "_amount",
          "type": "uint256"
        }
      ],
      "name": "burn",
      "outputs": [],
      "payable": false,
      "stateMutability": "nonpayable",
      "type": "function"
    },
    {
      "constant": false,
      "inputs": [
        {
          "name": "_receiver",
          "type": "address"
        },
        {
          "name": "_amount",
          "type": "uint256"
        },
        {
          "name": "_start",
          "type": "uint64"
        },
        {
          "name": "_cliff",
          "type": "uint64"
        },
        {
          "name": "_vested",
          "type": "uint64"
        },
        {
          "name": "_revokable",
          "type": "bool"
        }
      ],
      "name": "assignVested",
      "outputs": [
        {
          "name": "",
          "type": "uint256"
        }
      ],
      "payable": false,
      "stateMutability": "nonpayable",
      "type": "function"
    },
    {
      "constant": false,
      "inputs": [
        {
          "name": "_holder",
          "type": "address"
        },
        {
          "name": "_vestingId",
          "type": "uint256"
        }
      ],
      "name": "revokeVesting",
      "outputs": [],
      "payable": false,
      "stateMutability": "nonpayable",
      "type": "function"
    },
    {
      "constant": false,
      "inputs": [
        {
          "name": "_from",
          "type": "address"
        },
        {
          "name": "_to",
          "type": "address"
        },
        {
          "name": "_amount",
          "type": "uint256"
        }
      ],
      "name": "onTransfer",
      "outputs": [
        {
          "name": "",
          "type": "bool"
        }
      ],
      "payable": false,
      "stateMutability": "nonpayable",
      "type": "function"
    },
    {
      "constant": false,
      "inputs": [
        {
          "name": "",
          "type": "address"
        },
        {
          "name": "",
          "type": "address"
        },
        {
          "name": "",
          "type": "uint256"
        }
      ],
      "name": "onApprove",
      "outputs": [
        {
          "name": "",
          "type": "bool"
        }
      ],
      "payable": false,
      "stateMutability": "nonpayable",
      "type": "function"
    },
    {
      "constant": false,
      "inputs": [
        {
          "name": "",
          "type": "address"
        }
      ],
      "name": "proxyPayment",
      "outputs": [
        {
          "name": "",
          "type": "bool"
        }
      ],
      "payable": true,
      "stateMutability": "payable",
      "type": "function"
    },
    {
      "constant": true,
      "inputs": [],
      "name": "isForwarder",
      "outputs": [
        {
          "name": "",
          "type": "bool"
        }
      ],
      "payable": false,
      "stateMutability": "pure",
      "type": "function"
    },
    {
      "constant": false,
      "inputs": [
        {
          "name": "_evmScript",
          "type": "bytes"
        }
      ],
      "name": "forward",
      "outputs": [],
      "payable": false,
      "stateMutability": "nonpayable",
      "type": "function"
    },
    {
      "constant": true,
      "inputs": [
        {
          "name": "_sender",
          "type": "address"
        },
        {
          "name": "",
          "type": "bytes"
        }
      ],
      "name": "canForward",
      "outputs": [
        {
          "name": "",
          "type": "bool"
        }
      ],
      "payable": false,
      "stateMutability": "view",
      "type": "function"
    },
    {
      "constant": true,
      "inputs": [
        {
          "name": "_recipient",
          "type": "address"
        },
        {
          "name": "_vestingId",
          "type": "uint256"
        }
      ],
      "name": "getVesting",
      "outputs": [
        {
          "name": "amount",
          "type": "uint256"
        },
        {
          "name": "start",
          "type": "uint64"
        },
        {
          "name": "cliff",
          "type": "uint64"
        },
        {
          "name": "vesting",
          "type": "uint64"
        },
        {
          "name": "revokable",
          "type": "bool"
        }
      ],
      "payable": false,
      "stateMutability": "view",
      "type": "function"
    },
    {
      "constant": true,
      "inputs": [
        {
          "name": "_holder",
          "type": "address"
        }
      ],
      "name": "spendableBalanceOf",
      "outputs": [
        {
          "name": "",
          "type": "uint256"
        }
      ],
      "payable": false,
      "stateMutability": "view",
      "type": "function"
    },
    {
      "constant": true,
      "inputs": [
        {
          "name": "_holder",
          "type": "address"
        },
        {
          "name": "_time",
          "type": "uint256"
        }
      ],
      "name": "transferableBalance",
      "outputs": [
        {
          "name": "",
          "type": "uint256"
        }
      ],
      "payable": false,
      "stateMutability": "view",
      "type": "function"
    },
    {
      "constant": true,
      "inputs": [
        {
          "name": "_token",
          "type": "address"
        }
      ],
      "name": "allowRecoverability",
      "outputs": [
        {
          "name": "",
          "type": "bool"
        }
      ],
      "payable": false,
      "stateMutability": "view",
      "type": "function"
    }
  ],
  "bytecode": "0x60806040526200001d62000023640100000000026401000000009004565b62000309565b60006200003e6200015e640100000000026401000000009004565b146040805190810160405280601881526020017f494e49545f414c52454144595f494e495449414c495a4544000000000000000081525090151562000121576040517f08c379a00000000000000000000000000000000000000000000000000000000081526004018080602001828103825283818151815260200191508051906020019080838360005b83811015620000e5578082015181840152602081019050620000c8565b50505050905090810190601f168015620001135780820380516001836020036101000a031916815260200191505b509250505060405180910390fd5b506200015c7fffffffffffffffffffffffffffffffffffffffffffffffffffffffffffffffff620001ab640100000000026401000000009004565b565b6000620001a67febb05b386a8d34882b8711d156f463690983dc47815980fb82aeeff1aa43579e60010260001916620002f764010000000002620046b3176401000000009004565b905090565b6000620001c66200015e640100000000026401000000009004565b146040805190810160405280601881526020017f494e49545f414c52454144595f494e495449414c495a45440000000000000000815250901515620002a9576040517f08c379a00000000000000000000000000000000000000000000000000000000081526004018080602001828103825283818151815260200191508051906020019080838360005b838110156200026d57808201518184015260208101905062000250565b50505050905090810190601f1680156200029b5780820380516001836020036101000a031916815260200191505b509250505060405180910390fd5b50620002f4817febb05b386a8d34882b8711d156f463690983dc47815980fb82aeeff1aa43579e60010260001916620003026401000000000262005741179091906401000000009004565b50565b600081549050919050565b8082555050565b61588680620003196000396000f3006080604052600436106101c2576000357c0100000000000000000000000000000000000000000000000000000000900463ffffffff1680630803fac0146101c75780630db3971b146101f65780630f8f8b831461022157806321cb18cd146102785780632914b9bd1461032157806332f0a3b5146103ca5780633e05a36d1461042157806340c10f19146104de5780634a3931491461052b57806372f8393c146105b05780637e7db6e11461061157806380afdea81461066c578063856222f11461069f5780638b3dd749146106d257806397f2562a146106fd5780639d4941d8146107545780639dc29fac14610797578063a1658fad146107e4578063a479e50814610890578063a51d9a8e146108e7578063b930908f1461091a578063be7604881461094d578063c0774df31461099a578063cc872b6614610a3b578063d4aae0c414610a68578063d948d46814610abf578063da682aeb14610b28578063de4796ed14610bad578063e37ff29f14610bdc578063e9a9c85014610c35578063ecfda43214610c68578063edc168f114610c93578063f48c305414610cc6578063fa6799f214610d14578063fc0c546a14610d61578063fd64eccb14610db8575b600080fd5b3480156101d357600080fd5b506101dc610de7565b604051808215151515815260200191505060405180910390f35b34801561020257600080fd5b5061020b610e12565b6040518082815260200191505060405180910390f35b34801561022d57600080fd5b50610262600480360381019080803573ffffffffffffffffffffffffffffffffffffffff169060200190929190505050610e17565b6040518082815260200191505060405180910390f35b34801561028457600080fd5b5061030b600480360381019080803573ffffffffffffffffffffffffffffffffffffffff16906020019092919080359060200190929190803567ffffffffffffffff169060200190929190803567ffffffffffffffff169060200190929190803567ffffffffffffffff169060200190929190803515159060200190929190505050610f18565b6040518082815260200191505060405180910390f35b34801561032d57600080fd5b50610388600480360381019080803590602001908201803590602001908080601f016020809104026020016040519081016040528093929190818152602001838380828437820191505050505050919291929050505061159f565b604051808273ffffffffffffffffffffffffffffffffffffffff1673ffffffffffffffffffffffffffffffffffffffff16815260200191505060405180910390f35b3480156103d657600080fd5b506103df6116be565b604051808273ffffffffffffffffffffffffffffffffffffffff1673ffffffffffffffffffffffffffffffffffffffff16815260200191505060405180910390f35b34801561042d57600080fd5b5061046c600480360381019080803573ffffffffffffffffffffffffffffffffffffffff1690602001909291908035906020019092919050505061176b565b604051808681526020018567ffffffffffffffff1667ffffffffffffffff1681526020018467ffffffffffffffff1667ffffffffffffffff1681526020018367ffffffffffffffff1667ffffffffffffffff168152602001821515151581526020019550505050505060405180910390f35b3480156104ea57600080fd5b50610529600480360381019080803573ffffffffffffffffffffffffffffffffffffffff16906020019092919080359060200190929190505050611962565b005b34801561053757600080fd5b50610596600480360381019080803573ffffffffffffffffffffffffffffffffffffffff169060200190929190803573ffffffffffffffffffffffffffffffffffffffff16906020019092919080359060200190929190505050611bab565b604051808215151515815260200191505060405180910390f35b3480156105bc57600080fd5b506105fb600480360381019080803573ffffffffffffffffffffffffffffffffffffffff16906020019092919080359060200190929190505050611d0b565b6040518082815260200191505060405180910390f35b34801561061d57600080fd5b50610652600480360381019080803573ffffffffffffffffffffffffffffffffffffffff169060200190929190505050611e06565b604051808215151515815260200191505060405180910390f35b34801561067857600080fd5b50610681611e60565b60405180826000191660001916815260200191505060405180910390f35b3480156106ab57600080fd5b506106b4611e97565b60405180826000191660001916815260200191505060405180910390f35b3480156106de57600080fd5b506106e7611ed0565b6040518082815260200191505060405180910390f35b34801561070957600080fd5b5061073e600480360381019080803573ffffffffffffffffffffffffffffffffffffffff169060200190929190505050611f07565b6040518082815260200191505060405180910390f35b34801561076057600080fd5b50610795600480360381019080803573ffffffffffffffffffffffffffffffffffffffff169060200190929190505050611f1f565b005b3480156107a357600080fd5b506107e2600480360381019080803573ffffffffffffffffffffffffffffffffffffffff1690602001909291908035906020019092919050505061233d565b005b3480156107f057600080fd5b50610876600480360381019080803573ffffffffffffffffffffffffffffffffffffffff16906020019092919080356000191690602001909291908035906020019082018035906020019080806020026020016040519081016040528093929190818152602001838360200280828437820191505050505050919291929050505061256d565b604051808215151515815260200191505060405180910390f35b34801561089c57600080fd5b506108a5612769565b604051808273ffffffffffffffffffffffffffffffffffffffff1673ffffffffffffffffffffffffffffffffffffffff16815260200191505060405180910390f35b3480156108f357600080fd5b506108fc612884565b60405180826000191660001916815260200191505060405180910390f35b34801561092657600080fd5b5061092f6128bd565b60405180826000191660001916815260200191505060405180910390f35b34801561095957600080fd5b50610998600480360381019080803573ffffffffffffffffffffffffffffffffffffffff169060200190929190803590602001909291905050506128f6565b005b3480156109a657600080fd5b50610a21600480360381019080803573ffffffffffffffffffffffffffffffffffffffff169060200190929190803590602001908201803590602001908080601f0160208091040260200160405190810160405280939291908181526020018383808284378201915050505050509192919290505050612a30565b604051808215151515815260200191505060405180910390f35b348015610a4757600080fd5b50610a6660048036038101908080359060200190929190505050612b44565b005b348015610a7457600080fd5b50610a7d612c7c565b604051808273ffffffffffffffffffffffffffffffffffffffff1673ffffffffffffffffffffffffffffffffffffffff16815260200191505060405180910390f35b348015610acb57600080fd5b50610b26600480360381019080803590602001908201803590602001908080601f0160208091040260200160405190810160405280939291908181526020018383808284378201915050505050509192919290505050612cb3565b005b348015610b3457600080fd5b50610b93600480360381019080803573ffffffffffffffffffffffffffffffffffffffff169060200190929190803573ffffffffffffffffffffffffffffffffffffffff16906020019092919080359060200190929190505050612e87565b604051808215151515815260200191505060405180910390f35b348015610bb957600080fd5b50610bc2612fc3565b604051808215151515815260200191505060405180910390f35b348015610be857600080fd5b50610c33600480360381019080803573ffffffffffffffffffffffffffffffffffffffff16906020019092919080351515906020019092919080359060200190929190505050612ff4565b005b348015610c4157600080fd5b50610c4a613486565b60405180826000191660001916815260200191505060405180910390f35b348015610c7457600080fd5b50610c7d6134bf565b6040518082815260200191505060405180910390f35b348015610c9f57600080fd5b50610ca86134c5565b60405180826000191660001916815260200191505060405180910390f35b610cfa600480360381019080803573ffffffffffffffffffffffffffffffffffffffff1690602001909291905050506134fe565b604051808215151515815260200191505060405180910390f35b348015610d2057600080fd5b50610d5f600480360381019080803573ffffffffffffffffffffffffffffffffffffffff16906020019092919080359060200190929190505050613638565b005b348015610d6d57600080fd5b50610d76613d7c565b604051808273ffffffffffffffffffffffffffffffffffffffff1673ffffffffffffffffffffffffffffffffffffffff16815260200191505060405180910390f35b348015610dc457600080fd5b50610dcd613da1565b604051808215151515815260200191505060405180910390f35b600080610df2611ed0565b905060008114158015610e0c575080610e09613daa565b10155b91505090565b603281565b6000610e21610de7565b6040805190810160405280601481526020017f494e49545f4e4f545f494e495449414c495a4544000000000000000000000000815250901515610eff576040517f08c379a00000000000000000000000000000000000000000000000000000000081526004018080602001828103825283818151815260200191508051906020019080838360005b83811015610ec4578082015181840152602081019050610ea9565b50505050905090810190601f168015610ef15780820380516001836020036101000a031916815260200191505b509250505060405180910390fd5b50610f1182610f0c613db2565b613dba565b9050919050565b60008060405180807f41535349474e5f524f4c45000000000000000000000000000000000000000000815250600b0190506040518091039020610f5b898961403c565b610f6633838361256d565b6040805190810160405280600f81526020017f4150505f415554485f4641494c45440000000000000000000000000000000000815250901515611044576040517f08c379a00000000000000000000000000000000000000000000000000000000081526004018080602001828103825283818151815260200191508051906020019080838360005b83811015611009578082015181840152602081019050610fee565b50505050905090810190601f1680156110365780820380516001836020036101000a031916815260200191505b509250505060405180910390fd5b503073ffffffffffffffffffffffffffffffffffffffff168a73ffffffffffffffffffffffffffffffffffffffff1614156040805190810160405280601081526020017f544d5f56455354494e475f544f5f544d00000000000000000000000000000000815250901515611153576040517f08c379a00000000000000000000000000000000000000000000000000000000081526004018080602001828103825283818151815260200191508051906020019080838360005b838110156111185780820151818401526020810190506110fd565b50505050905090810190601f1680156111455780820380516001836020036101000a031916815260200191505b509250505060405180910390fd5b506032600360008c73ffffffffffffffffffffffffffffffffffffffff1673ffffffffffffffffffffffffffffffffffffffff16815260200190815260200160002054106040805190810160405280601481526020017f544d5f544f4f5f4d414e595f56455354494e4753000000000000000000000000815250901515611275576040517f08c379a00000000000000000000000000000000000000000000000000000000081526004018080602001828103825283818151815260200191508051906020019080838360005b8381101561123a57808201518184015260208101905061121f565b50505050905090810190601f1680156112675780820380516001836020036101000a031916815260200191505b509250505060405180910390fd5b508667ffffffffffffffff168867ffffffffffffffff16111580156112ae57508567ffffffffffffffff168767ffffffffffffffff1611155b6040805190810160405280601381526020017f544d5f57524f4e475f434c4946465f444154450000000000000000000000000081525090151561138c576040517f08c379a00000000000000000000000000000000000000000000000000000000081526004018080602001828103825283818151815260200191508051906020019080838360005b83811015611351578082015181840152602081019050611336565b50505050905090810190601f16801561137e5780820380516001836020036101000a031916815260200191505b509250505060405180910390fd5b50600360008b73ffffffffffffffffffffffffffffffffffffffff1673ffffffffffffffffffffffffffffffffffffffff168152602001908152602001600020600081548092919060010191905055925060a0604051908101604052808a81526020018967ffffffffffffffff1681526020018867ffffffffffffffff1681526020018767ffffffffffffffff168152602001861515815250600260008c73ffffffffffffffffffffffffffffffffffffffff1673ffffffffffffffffffffffffffffffffffffffff16815260200190815260200160002060008581526020019081526020016000206000820151816000015560208201518160010160006101000a81548167ffffffffffffffff021916908367ffffffffffffffff16021790555060408201518160010160086101000a81548167ffffffffffffffff021916908367ffffffffffffffff16021790555060608201518160010160106101000a81548167ffffffffffffffff021916908367ffffffffffffffff16021790555060808201518160010160186101000a81548160ff0219169083151502179055509050506115398a8a614066565b8973ffffffffffffffffffffffffffffffffffffffff167f627ad26dcfe82ec79b33fda0ddd062f6fab9f4914acac8345f79090dfd86fb54848b604051808381526020018281526020019250505060405180910390a28293505050509695505050505050565b60006115a9612769565b73ffffffffffffffffffffffffffffffffffffffff166304bf2a7f836040518263ffffffff167c01000000000000000000000000000000000000000000000000000000000281526004018080602001828103825283818151815260200191508051906020019080838360005b83811015611630578082015181840152602081019050611615565b50505050905090810190601f16801561165d5780820380516001836020036101000a031916815260200191505b5092505050602060405180830381600087803b15801561167c57600080fd5b505af1158015611690573d6000803e3d6000fd5b505050506040513d60208110156116a657600080fd5b81019080805190602001909291905050509050919050565b60006116c8612c7c565b73ffffffffffffffffffffffffffffffffffffffff166332f0a3b56040518163ffffffff167c0100000000000000000000000000000000000000000000000000000000028152600401602060405180830381600087803b15801561172b57600080fd5b505af115801561173f573d6000803e3d6000fd5b505050506040513d602081101561175557600080fd5b8101908080519060200190929190505050905090565b6000806000806000808787600360008373ffffffffffffffffffffffffffffffffffffffff1673ffffffffffffffffffffffffffffffffffffffff1681526020019081526020016000205481106040805190810160405280600d81526020017f544d5f4e4f5f56455354494e4700000000000000000000000000000000000000815250901515611896576040517f08c379a00000000000000000000000000000000000000000000000000000000081526004018080602001828103825283818151815260200191508051906020019080838360005b8381101561185b578082015181840152602081019050611840565b50505050905090810190601f1680156118885780820380516001836020036101000a031916815260200191505b509250505060405180910390fd5b50600260008b73ffffffffffffffffffffffffffffffffffffffff1673ffffffffffffffffffffffffffffffffffffffff16815260200190815260200160002060008a81526020019081526020016000209250826000015497508260010160009054906101000a900467ffffffffffffffff1696508260010160089054906101000a900467ffffffffffffffff1695508260010160109054906101000a900467ffffffffffffffff1694508260010160189054906101000a900460ff1693505050509295509295909350565b60405180807f4d494e545f524f4c450000000000000000000000000000000000000000000000815250600901905060405180910390206119a2838361403c565b6119ad33838361256d565b6040805190810160405280600f81526020017f4150505f415554485f4641494c45440000000000000000000000000000000000815250901515611a8b576040517f08c379a00000000000000000000000000000000000000000000000000000000081526004018080602001828103825283818151815260200191508051906020019080838360005b83811015611a50578082015181840152602081019050611a35565b50505050905090810190601f168015611a7d5780820380516001836020036101000a031916815260200191505b509250505060405180910390fd5b503073ffffffffffffffffffffffffffffffffffffffff168473ffffffffffffffffffffffffffffffffffffffff1614156040805190810160405280601681526020017f544d5f4d494e545f52454345495645525f49535f544d00000000000000000000815250901515611b9a576040517f08c379a00000000000000000000000000000000000000000000000000000000081526004018080602001828103825283818151815260200191508051906020019080838360005b83811015611b5f578082015181840152602081019050611b44565b50505050905090810190601f168015611b8c5780820380516001836020036101000a031916815260200191505b509250505060405180910390fd5b50611ba58484614365565b50505050565b60008060009054906101000a900473ffffffffffffffffffffffffffffffffffffffff1673ffffffffffffffffffffffffffffffffffffffff163373ffffffffffffffffffffffffffffffffffffffff16146040805190810160405280601381526020017f544d5f43414c4c45525f4e4f545f544f4b454e00000000000000000000000000815250901515611cdb576040517f08c379a00000000000000000000000000000000000000000000000000000000081526004018080602001828103825283818151815260200191508051906020019080838360005b83811015611ca0578082015181840152602081019050611c85565b50505050905090810190601f168015611ccd5780820380516001836020036101000a031916815260200191505b509250505060405180910390fd5b50611ce68383614552565b8015611d02575081611cff85611cfa613db2565b613dba565b10155b90509392505050565b6000611d15610de7565b6040805190810160405280601481526020017f494e49545f4e4f545f494e495449414c495a4544000000000000000000000000815250901515611df3576040517f08c379a00000000000000000000000000000000000000000000000000000000081526004018080602001828103825283818151815260200191508051906020019080838360005b83811015611db8578082015181840152602081019050611d9d565b50505050905090810190601f168015611de55780820380516001836020036101000a031916815260200191505b509250505060405180910390fd5b50611dfe8383613dba565b905092915050565b60008060009054906101000a900473ffffffffffffffffffffffffffffffffffffffff1673ffffffffffffffffffffffffffffffffffffffff168273ffffffffffffffffffffffffffffffffffffffff1614159050919050565b6000611e927fd625496217aa6a3453eecb9c3489dc5a53e6c67b444329ea2b2cbc9ff547639b600102600019166146a8565b905090565b60405180807f49535355455f524f4c4500000000000000000000000000000000000000000000815250600a019050604051809103902081565b6000611f027febb05b386a8d34882b8711d156f463690983dc47815980fb82aeeff1aa43579e600102600019166146b3565b905090565b60036020528060005260406000206000915090505481565b6000806000611f2d84611e06565b6040805190810160405280601281526020017f5245434f5645525f444953414c4c4f574544000000000000000000000000000081525090151561200b576040517f08c379a00000000000000000000000000000000000000000000000000000000081526004018080602001828103825283818151815260200191508051906020019080838360005b83811015611fd0578082015181840152602081019050611fb5565b50505050905090810190601f168015611ffd5780820380516001836020036101000a031916815260200191505b509250505060405180910390fd5b506120146116be565b925061201f836146be565b6040805190810160405280601a81526020017f5245434f5645525f5641554c545f4e4f545f434f4e54524143540000000000008152509015156120fd576040517f08c379a00000000000000000000000000000000000000000000000000000000081526004018080602001828103825283818151815260200191508051906020019080838360005b838110156120c25780820151818401526020810190506120a7565b50505050905090810190601f1680156120ef5780820380516001836020036101000a031916815260200191505b509250505060405180910390fd5b50600073ffffffffffffffffffffffffffffffffffffffff168473ffffffffffffffffffffffffffffffffffffffff161415612199573073ffffffffffffffffffffffffffffffffffffffff163191508273ffffffffffffffffffffffffffffffffffffffff166108fc839081150290604051600060405180830381858888f19350505050158015612193573d6000803e3d6000fd5b506122d2565b8390506121c5308273ffffffffffffffffffffffffffffffffffffffff1661471090919063ffffffff16565b91506121f283838373ffffffffffffffffffffffffffffffffffffffff166148ea9092919063ffffffff16565b6040805190810160405280601d81526020017f5245434f5645525f544f4b454e5f5452414e534645525f4641494c45440000008152509015156122d0576040517f08c379a00000000000000000000000000000000000000000000000000000000081526004018080602001828103825283818151815260200191508051906020019080838360005b8381101561229557808201518184015260208101905061227a565b50505050905090810190601f1680156122c25780820380516001836020036101000a031916815260200191505b509250505060405180910390fd5b505b8373ffffffffffffffffffffffffffffffffffffffff168373ffffffffffffffffffffffffffffffffffffffff167f596caf56044b55fb8c4ca640089bbc2b63cae3e978b851f5745cbb7c5b288e02846040518082815260200191505060405180910390a350505050565b60405180807f4255524e5f524f4c4500000000000000000000000000000000000000000000008152506009019050604051809103902061237d838361403c565b61238833838361256d565b6040805190810160405280600f81526020017f4150505f415554485f4641494c45440000000000000000000000000000000000815250901515612466576040517f08c379a00000000000000000000000000000000000000000000000000000000081526004018080602001828103825283818151815260200191508051906020019080838360005b8381101561242b578082015181840152602081019050612410565b50505050905090810190601f1680156124585780820380516001836020036101000a031916815260200191505b509250505060405180910390fd5b506000809054906101000a900473ffffffffffffffffffffffffffffffffffffffff1673ffffffffffffffffffffffffffffffffffffffff1663d3ce77fe85856040518363ffffffff167c0100000000000000000000000000000000000000000000000000000000028152600401808373ffffffffffffffffffffffffffffffffffffffff1673ffffffffffffffffffffffffffffffffffffffff16815260200182815260200192505050602060405180830381600087803b15801561252b57600080fd5b505af115801561253f573d6000803e3d6000fd5b505050506040513d602081101561255557600080fd5b81019080805190602001909291905050505050505050565b600080612578610de7565b15156125875760009150612761565b61258f612c7c565b9050600073ffffffffffffffffffffffffffffffffffffffff168173ffffffffffffffffffffffffffffffffffffffff1614156125cf5760009150612761565b8073ffffffffffffffffffffffffffffffffffffffff1663fdef91068630876125f7886149ca565b6040518563ffffffff167c0100000000000000000000000000000000000000000000000000000000028152600401808573ffffffffffffffffffffffffffffffffffffffff1673ffffffffffffffffffffffffffffffffffffffff1681526020018473ffffffffffffffffffffffffffffffffffffffff1673ffffffffffffffffffffffffffffffffffffffff168152602001836000191660001916815260200180602001828103825283818151815260200191508051906020019080838360005b838110156126d45780820151818401526020810190506126b9565b50505050905090810190601f1680156127015780820380516001836020036101000a031916815260200191505b5095505050505050602060405180830381600087803b15801561272357600080fd5b505af1158015612737573d6000803e3d6000fd5b505050506040513d602081101561274d57600080fd5b810190808051906020019092919050505091505b509392505050565b600080612774612c7c565b73ffffffffffffffffffffffffffffffffffffffff1663be00bbd87fd6f028ca0e8edb4a8c9757ca4fdccab25fa1e0317da1188108f7d2dee14902fb6001027fddbcfd564f642ab5627cf68b9b7d374fb4f8a36e941a75d89c87998cef03bd616001026040518363ffffffff167c0100000000000000000000000000000000000000000000000000000000028152600401808360001916600019168152602001826000191660001916815260200192505050602060405180830381600087803b15801561284057600080fd5b505af1158015612854573d6000803e3d6000fd5b505050506040513d602081101561286a57600080fd5b810190808051906020019092919050505090508091505090565b60405180807f41535349474e5f524f4c45000000000000000000000000000000000000000000815250600b019050604051809103902081565b60405180807f4255524e5f524f4c4500000000000000000000000000000000000000000000008152506009019050604051809103902081565b60405180807f41535349474e5f524f4c45000000000000000000000000000000000000000000815250600b0190506040518091039020612936838361403c565b61294133838361256d565b6040805190810160405280600f81526020017f4150505f415554485f4641494c45440000000000000000000000000000000000815250901515612a1f576040517f08c379a00000000000000000000000000000000000000000000000000000000081526004018080602001828103825283818151815260200191508051906020019080838360005b838110156129e45780820151818401526020810190506129c9565b50505050905090810190601f168015612a115780820380516001836020036101000a031916815260200191505b509250505060405180910390fd5b50612a2a8484614066565b50505050565b6000612a3a610de7565b8015612b3c575060008060009054906101000a900473ffffffffffffffffffffffffffffffffffffffff1673ffffffffffffffffffffffffffffffffffffffff166370a08231856040518263ffffffff167c0100000000000000000000000000000000000000000000000000000000028152600401808273ffffffffffffffffffffffffffffffffffffffff1673ffffffffffffffffffffffffffffffffffffffff168152602001915050602060405180830381600087803b158015612aff57600080fd5b505af1158015612b13573d6000803e3d6000fd5b505050506040513d6020811015612b2957600080fd5b8101908080519060200190929190505050115b905092915050565b60405180807f49535355455f524f4c4500000000000000000000000000000000000000000000815250600a0190506040518091039020612b83826149e1565b612b8e33838361256d565b6040805190810160405280600f81526020017f4150505f415554485f4641494c45440000000000000000000000000000000000815250901515612c6c576040517f08c379a00000000000000000000000000000000000000000000000000000000081526004018080602001828103825283818151815260200191508051906020019080838360005b83811015612c31578082015181840152602081019050612c16565b50505050905090810190601f168015612c5e5780820380516001836020036101000a031916815260200191505b509250505060405180910390fd5b50612c773084614365565b505050565b6000612cae7f4172f0f7d2289153072b0a6ca36959e0cbe2efc3afe50fc81636caa96338137b60010260001916614a39565b905090565b606080612cc03384612a30565b6040805190810160405280601281526020017f544d5f43414e5f4e4f545f464f52574152440000000000000000000000000000815250901515612d9e576040517f08c379a00000000000000000000000000000000000000000000000000000000081526004018080602001828103825283818151815260200191508051906020019080838360005b83811015612d63578082015181840152602081019050612d48565b50505050905090810190601f168015612d905780820380516001836020036101000a031916815260200191505b509250505060405180910390fd5b5060006040519080825280601f01601f191660200182016040528015612dd35781602001602082028038833980820191505090505b5091506001604051908082528060200260200182016040528015612e065781602001602082028038833980820191505090505b5090506000809054906101000a900473ffffffffffffffffffffffffffffffffffffffff16816000815181101515612e3a57fe5b9060200190602002019073ffffffffffffffffffffffffffffffffffffffff16908173ffffffffffffffffffffffffffffffffffffffff1681525050612e81838383614a44565b50505050565b60008060009054906101000a900473ffffffffffffffffffffffffffffffffffffffff1673ffffffffffffffffffffffffffffffffffffffff163373ffffffffffffffffffffffffffffffffffffffff16146040805190810160405280601381526020017f544d5f43414c4c45525f4e4f545f544f4b454e00000000000000000000000000815250901515612fb7576040517f08c379a00000000000000000000000000000000000000000000000000000000081526004018080602001828103825283818151815260200191508051906020019080838360005b83811015612f7c578082015181840152602081019050612f61565b50505050905090810190601f168015612fa95780820380516001836020036101000a031916815260200191505b509250505060405180910390fd5b50600190509392505050565b60007fffffffffffffffffffffffffffffffffffffffffffffffffffffffffffffffff612fee611ed0565b14905090565b6000612ffe611ed0565b146040805190810160405280601881526020017f494e49545f414c52454144595f494e495449414c495a454400000000000000008152509015156130dd576040517f08c379a00000000000000000000000000000000000000000000000000000000081526004018080602001828103825283818151815260200191508051906020019080838360005b838110156130a2578082015181840152602081019050613087565b50505050905090810190601f1680156130cf5780820380516001836020036101000a031916815260200191505b509250505060405180910390fd5b506130e661527b565b3073ffffffffffffffffffffffffffffffffffffffff168373ffffffffffffffffffffffffffffffffffffffff1663f77c47916040518163ffffffff167c0100000000000000000000000000000000000000000000000000000000028152600401602060405180830381600087803b15801561316157600080fd5b505af1158015613175573d6000803e3d6000fd5b505050506040513d602081101561318b57600080fd5b810190808051906020019092919050505073ffffffffffffffffffffffffffffffffffffffff16146040805190810160405280601381526020017f544d5f544f4b454e5f434f4e54524f4c4c455200000000000000000000000000815250901515613291576040517f08c379a00000000000000000000000000000000000000000000000000000000081526004018080602001828103825283818151815260200191508051906020019080838360005b8381101561325657808201518184015260208101905061323b565b50505050905090810190601f1680156132835780820380516001836020036101000a031916815260200191505b509250505060405180910390fd5b50826000806101000a81548173ffffffffffffffffffffffffffffffffffffffff021916908373ffffffffffffffffffffffffffffffffffffffff160217905550600081146132e05780613302565b7fffffffffffffffffffffffffffffffffffffffffffffffffffffffffffffffff5b6001819055508115156000809054906101000a900473ffffffffffffffffffffffffffffffffffffffff1673ffffffffffffffffffffffffffffffffffffffff1663bef97c876040518163ffffffff167c0100000000000000000000000000000000000000000000000000000000028152600401602060405180830381600087803b15801561339057600080fd5b505af11580156133a4573d6000803e3d6000fd5b505050506040513d60208110156133ba57600080fd5b81019080805190602001909291905050501515141515613481576000809054906101000a900473ffffffffffffffffffffffffffffffffffffffff1673ffffffffffffffffffffffffffffffffffffffff1663f41e60c5836040518263ffffffff167c01000000000000000000000000000000000000000000000000000000000281526004018082151515158152602001915050600060405180830381600087803b15801561346857600080fd5b505af115801561347c573d6000803e3d6000fd5b505050505b505050565b60405180807f4d494e545f524f4c4500000000000000000000000000000000000000000000008152506009019050604051809103902081565b60015481565b60405180807f5245564f4b455f56455354494e47535f524f4c450000000000000000000000008152506014019050604051809103902081565b60008060009054906101000a900473ffffffffffffffffffffffffffffffffffffffff1673ffffffffffffffffffffffffffffffffffffffff163373ffffffffffffffffffffffffffffffffffffffff16146040805190810160405280601381526020017f544d5f43414c4c45525f4e4f545f544f4b454e0000000000000000000000000081525090151561362e576040517f08c379a00000000000000000000000000000000000000000000000000000000081526004018080602001828103825283818151815260200191508051906020019080838360005b838110156135f35780820151818401526020810190506135d8565b50505050905090810190601f1680156136205780820380516001836020036101000a031916815260200191505b509250505060405180910390fd5b5060009050919050565b60008060405180807f5245564f4b455f56455354494e47535f524f4c450000000000000000000000008152506014019050604051809103902061367a856153a8565b61368533838361256d565b6040805190810160405280600f81526020017f4150505f415554485f4641494c45440000000000000000000000000000000000815250901515613763576040517f08c379a00000000000000000000000000000000000000000000000000000000081526004018080602001828103825283818151815260200191508051906020019080838360005b8381101561372857808201518184015260208101905061370d565b50505050905090810190601f1680156137555780820380516001836020036101000a031916815260200191505b509250505060405180910390fd5b508585600360008373ffffffffffffffffffffffffffffffffffffffff1673ffffffffffffffffffffffffffffffffffffffff1681526020019081526020016000205481106040805190810160405280600d81526020017f544d5f4e4f5f56455354494e4700000000000000000000000000000000000000815250901515613886576040517f08c379a00000000000000000000000000000000000000000000000000000000081526004018080602001828103825283818151815260200191508051906020019080838360005b8381101561384b578082015181840152602081019050613830565b50505050905090810190601f1680156138785780820380516001836020036101000a031916815260200191505b509250505060405180910390fd5b50600260008973ffffffffffffffffffffffffffffffffffffffff1673ffffffffffffffffffffffffffffffffffffffff168152602001908152602001600020600088815260200190815260200160002095508560010160189054906101000a900460ff166040805190810160405280601881526020017f544d5f56455354494e475f4e4f545f5245564f4b41424c4500000000000000008152509015156139c9576040517f08c379a00000000000000000000000000000000000000000000000000000000081526004018080602001828103825283818151815260200191508051906020019080838360005b8381101561398e578082015181840152602081019050613973565b50505050905090810190601f1680156139bb5780820380516001836020036101000a031916815260200191505b509250505060405180910390fd5b50613a4886600001546139da613db2565b8860010160009054906101000a900467ffffffffffffffff1667ffffffffffffffff168960010160089054906101000a900467ffffffffffffffff1667ffffffffffffffff168a60010160109054906101000a900467ffffffffffffffff1667ffffffffffffffff166153d0565b9450600260008973ffffffffffffffffffffffffffffffffffffffff1673ffffffffffffffffffffffffffffffffffffffff16815260200190815260200160002060008881526020019081526020016000206000808201600090556001820160006101000a81549067ffffffffffffffff02191690556001820160086101000a81549067ffffffffffffffff02191690556001820160106101000a81549067ffffffffffffffff02191690556001820160186101000a81549060ff021916905550506000809054906101000a900473ffffffffffffffffffffffffffffffffffffffff1673ffffffffffffffffffffffffffffffffffffffff166323b872dd8930886040518463ffffffff167c0100000000000000000000000000000000000000000000000000000000028152600401808473ffffffffffffffffffffffffffffffffffffffff1673ffffffffffffffffffffffffffffffffffffffff1681526020018373ffffffffffffffffffffffffffffffffffffffff1673ffffffffffffffffffffffffffffffffffffffff1681526020018281526020019350505050602060405180830381600087803b158015613c0257600080fd5b505af1158015613c16573d6000803e3d6000fd5b505050506040513d6020811015613c2c57600080fd5b81019080805190602001909291905050506040805190810160405280602081526020017f544d5f5245564f4b455f5452414e534645525f46524f4d5f5245564552544544815250901515613d1b576040517f08c379a00000000000000000000000000000000000000000000000000000000081526004018080602001828103825283818151815260200191508051906020019080838360005b83811015613ce0578082015181840152602081019050613cc5565b50505050905090810190601f168015613d0d5780820380516001836020036101000a031916815260200191505b509250505060405180910390fd5b508773ffffffffffffffffffffffffffffffffffffffff167fafc516b1509f836efdc27d64d966d14f82ef53f456f0de74c12ac8a651a084cc8887604051808381526020018281526020019250505060405180910390a25050505050505050565b6000809054906101000a900473ffffffffffffffffffffffffffffffffffffffff1681565b60006001905090565b600043905090565b600042905090565b6000806000806000806000809054906101000a900473ffffffffffffffffffffffffffffffffffffffff1673ffffffffffffffffffffffffffffffffffffffff166370a08231896040518263ffffffff167c0100000000000000000000000000000000000000000000000000000000028152600401808273ffffffffffffffffffffffffffffffffffffffff1673ffffffffffffffffffffffffffffffffffffffff168152602001915050602060405180830381600087803b158015613e7f57600080fd5b505af1158015613e93573d6000803e3d6000fd5b505050506040513d6020811015613ea957600080fd5b810190808051906020019092919050505094503073ffffffffffffffffffffffffffffffffffffffff168873ffffffffffffffffffffffffffffffffffffffff1614151561402e57600360008973ffffffffffffffffffffffffffffffffffffffff1673ffffffffffffffffffffffffffffffffffffffff168152602001908152602001600020549350600092505b8383101561402d57600260008973ffffffffffffffffffffffffffffffffffffffff1673ffffffffffffffffffffffffffffffffffffffff168152602001908152602001600020600084815260200190815260200160002091506140098260000154888460010160009054906101000a900467ffffffffffffffff1667ffffffffffffffff168560010160089054906101000a900467ffffffffffffffff1667ffffffffffffffff168660010160109054906101000a900467ffffffffffffffff1667ffffffffffffffff166153d0565b905061401e818661545990919063ffffffff16565b94508280600101935050613f38565b5b849550505050505092915050565b606061405e8373ffffffffffffffffffffffffffffffffffffffff168361554e565b905092915050565b6140708282614552565b6040805190810160405280601a81526020017f544d5f42414c414e43455f494e435f4e4f545f414c4c4f57454400000000000081525090151561414e576040517f08c379a00000000000000000000000000000000000000000000000000000000081526004018080602001828103825283818151815260200191508051906020019080838360005b838110156141135780820151818401526020810190506140f8565b50505050905090810190601f1680156141405780820380516001836020036101000a031916815260200191505b509250505060405180910390fd5b506000809054906101000a900473ffffffffffffffffffffffffffffffffffffffff1673ffffffffffffffffffffffffffffffffffffffff166323b872dd3084846040518463ffffffff167c0100000000000000000000000000000000000000000000000000000000028152600401808473ffffffffffffffffffffffffffffffffffffffff1673ffffffffffffffffffffffffffffffffffffffff1681526020018373ffffffffffffffffffffffffffffffffffffffff1673ffffffffffffffffffffffffffffffffffffffff1681526020018281526020019350505050602060405180830381600087803b15801561424757600080fd5b505af115801561425b573d6000803e3d6000fd5b505050506040513d602081101561427157600080fd5b81019080805190602001909291905050506040805190810160405280602081526020017f544d5f41535349474e5f5452414e534645525f46524f4d5f5245564552544544815250901515614360576040517f08c379a00000000000000000000000000000000000000000000000000000000081526004018080602001828103825283818151815260200191508051906020019080838360005b8381101561432557808201518184015260208101905061430a565b50505050905090810190601f1680156143525780820380516001836020036101000a031916815260200191505b509250505060405180910390fd5b505050565b61436f8282614552565b6040805190810160405280601a81526020017f544d5f42414c414e43455f494e435f4e4f545f414c4c4f57454400000000000081525090151561444d576040517f08c379a00000000000000000000000000000000000000000000000000000000081526004018080602001828103825283818151815260200191508051906020019080838360005b838110156144125780820151818401526020810190506143f7565b50505050905090810190601f16801561443f5780820380516001836020036101000a031916815260200191505b509250505060405180910390fd5b506000809054906101000a900473ffffffffffffffffffffffffffffffffffffffff1673ffffffffffffffffffffffffffffffffffffffff1663827f32c083836040518363ffffffff167c0100000000000000000000000000000000000000000000000000000000028152600401808373ffffffffffffffffffffffffffffffffffffffff1673ffffffffffffffffffffffffffffffffffffffff16815260200182815260200192505050602060405180830381600087803b15801561451257600080fd5b505af1158015614526573d6000803e3d6000fd5b505050506040513d602081101561453c57600080fd5b8101908080519060200190929190505050505050565b60003073ffffffffffffffffffffffffffffffffffffffff168373ffffffffffffffffffffffffffffffffffffffff16141561459157600190506146a2565b60015461469d836000809054906101000a900473ffffffffffffffffffffffffffffffffffffffff1673ffffffffffffffffffffffffffffffffffffffff166370a08231876040518263ffffffff167c0100000000000000000000000000000000000000000000000000000000028152600401808273ffffffffffffffffffffffffffffffffffffffff1673ffffffffffffffffffffffffffffffffffffffff168152602001915050602060405180830381600087803b15801561465457600080fd5b505af1158015614668573d6000803e3d6000fd5b505050506040513d602081101561467e57600080fd5b81019080805190602001909291905050506155c590919063ffffffff16565b111590505b92915050565b600081549050919050565b600081549050919050565b600080600073ffffffffffffffffffffffffffffffffffffffff168373ffffffffffffffffffffffffffffffffffffffff1614156146ff576000915061470a565b823b90506000811191505b50919050565b600060606000808573ffffffffffffffffffffffffffffffffffffffff166370a0823190507c01000000000000000000000000000000000000000000000000000000000285604051602401808273ffffffffffffffffffffffffffffffffffffffff1673ffffffffffffffffffffffffffffffffffffffff168152602001915050604051602081830303815290604052907bffffffffffffffffffffffffffffffffffffffffffffffffffffffff19166020820180517bffffffffffffffffffffffffffffffffffffffffffffffffffffffff838183161783525050505092506147fa86846156ba565b91509150816040805190810160405280601c81526020017f534146455f4552435f32305f42414c414e43455f5245564552544544000000008152509015156148dd576040517f08c379a00000000000000000000000000000000000000000000000000000000081526004018080602001828103825283818151815260200191508051906020019080838360005b838110156148a2578082015181840152602081019050614887565b50505050905090810190601f1680156148cf5780820380516001836020036101000a031916815260200191505b509250505060405180910390fd5b5080935050505092915050565b6000606063a9059cbb7c0100000000000000000000000000000000000000000000000000000000028484604051602401808373ffffffffffffffffffffffffffffffffffffffff1673ffffffffffffffffffffffffffffffffffffffff16815260200182815260200192505050604051602081830303815290604052907bffffffffffffffffffffffffffffffffffffffffffffffffffffffff19166020820180517bffffffffffffffffffffffffffffffffffffffffffffffffffffffff838183161783525050505090506149c085826156ef565b9150509392505050565b606060006020835102905082915080825250919050565b60606001604051908082528060200260200182016040528015614a135781602001602082028038833980820191505090505b50905081816000815181101515614a2657fe5b9060200190602002018181525050919050565b600081549050919050565b6060600080606080614a54610de7565b6040805190810160405280601481526020017f494e49545f4e4f545f494e495449414c495a4544000000000000000000000000815250901515614b32576040517f08c379a00000000000000000000000000000000000000000000000000000000081526004018080602001828103825283818151815260200191508051906020019080838360005b83811015614af7578082015181840152602081019050614adc565b50505050905090810190601f168015614b245780820380516001836020036101000a031916815260200191505b509250505060405180910390fd5b50600080614b3e612c7c565b9150614b48611e60565b9050614b538a61159f565b9550600073ffffffffffffffffffffffffffffffffffffffff168673ffffffffffffffffffffffffffffffffffffffff1614156040805190810160405280601b81526020017f45564d52554e5f4558454355544f525f554e415641494c41424c450000000000815250901515614c64576040517f08c379a00000000000000000000000000000000000000000000000000000000081526004018080602001828103825283818151815260200191508051906020019080838360005b83811015614c29578082015181840152602081019050614c0e565b50505050905090810190601f168015614c565780820380516001836020036101000a031916815260200191505b509250505060405180910390fd5b508573ffffffffffffffffffffffffffffffffffffffff1663279cea3590507c0100000000000000000000000000000000000000000000000000000000029450848a8a8a60405160240180806020018060200180602001848103845287818151815260200191508051906020019080838360005b83811015614cf3578082015181840152602081019050614cd8565b50505050905090810190601f168015614d205780820380516001836020036101000a031916815260200191505b50848103835286818151815260200191508051906020019080838360005b83811015614d59578082015181840152602081019050614d3e565b50505050905090810190601f168015614d865780820380516001836020036101000a031916815260200191505b50848103825285818151815260200191508051906020019060200280838360005b83811015614dc2578082015181840152602081019050614da7565b505050509050019650505050505050604051602081830303815290604052907bffffffffffffffffffffffffffffffffffffffffffffffffffffffff19166020820180517bffffffffffffffffffffffffffffffffffffffffffffffffffffffff83818316178352505050509350600080855160208701895af460405193508060008114614ecd57603f3d1160008114614e6b5760203d03806020883e80870160405250614ec7565b7f08c379a000000000000000000000000000000000000000000000000000000000865260206004870152601e60248701527f45564d52554e5f4558454355544f525f494e56414c49445f52455455524e00006044870152606486fd5b50614ed6565b3d6000863e3d85fd5b50508573ffffffffffffffffffffffffffffffffffffffff167f5229a5dba83a54ae8cb5b51bdd6de9474cacbe9dd332f5185f3a4f4f2e3f4ad98b8b8660405180806020018060200180602001848103845287818151815260200191508051906020019080838360005b83811015614f5b578082015181840152602081019050614f40565b50505050905090810190601f168015614f885780820380516001836020036101000a031916815260200191505b50848103835286818151815260200191508051906020019080838360005b83811015614fc1578082015181840152602081019050614fa6565b50505050905090810190601f168015614fee5780820380516001836020036101000a031916815260200191505b50848103825285818151815260200191508051906020019080838360005b8381101561502757808201518184015260208101905061500c565b50505050905090810190601f1680156150545780820380516001836020036101000a031916815260200191505b50965050505050505060405180910390a28296508173ffffffffffffffffffffffffffffffffffffffff16615087612c7c565b73ffffffffffffffffffffffffffffffffffffffff16146040805190810160405280601f81526020017f45564d52554e5f50524f5445435445445f53544154455f4d4f4449464945440081525090151561517c576040517f08c379a00000000000000000000000000000000000000000000000000000000081526004018080602001828103825283818151815260200191508051906020019080838360005b83811015615141578082015181840152602081019050615126565b50505050905090810190601f16801561516e5780820380516001836020036101000a031916815260200191505b509250505060405180910390fd5b50806000191661518a611e60565b60001916146040805190810160405280601f81526020017f45564d52554e5f50524f5445435445445f53544154455f4d4f4449464945440081525090151561526d576040517f08c379a00000000000000000000000000000000000000000000000000000000081526004018080602001828103825283818151815260200191508051906020019080838360005b83811015615232578082015181840152602081019050615217565b50505050905090810190601f16801561525f5780820380516001836020036101000a031916815260200191505b509250505060405180910390fd5b505050505050509392505050565b6000615285611ed0565b146040805190810160405280601881526020017f494e49545f414c52454144595f494e495449414c495a45440000000000000000815250901515615364576040517f08c379a00000000000000000000000000000000000000000000000000000000081526004018080602001828103825283818151815260200191508051906020019080838360005b8381101561532957808201518184015260208101905061530e565b50505050905090810190601f1680156153565780820380516001836020036101000a031916815260200191505b509250505060405180910390fd5b506153a6615370613daa565b7febb05b386a8d34882b8711d156f463690983dc47815980fb82aeeff1aa43579e6001026000191661574190919063ffffffff16565b565b60606153c98273ffffffffffffffffffffffffffffffffffffffff166149e1565b9050919050565b60008082861015156153e5576000915061544f565b838610156153f55786915061544f565b615408858461545990919063ffffffff16565b61542d61541e878961545990919063ffffffff16565b8961574890919063ffffffff16565b81151561543657fe5b04905061544c818861545990919063ffffffff16565b91505b5095945050505050565b600080838311156040805190810160405280601281526020017f4d4154485f5355425f554e444552464c4f57000000000000000000000000000081525090151561553e576040517f08c379a00000000000000000000000000000000000000000000000000000000081526004018080602001828103825283818151815260200191508051906020019080838360005b838110156155035780820151818401526020810190506154e8565b50505050905090810190601f1680156155305780820380516001836020036101000a031916815260200191505b509250505060405180910390fd5b5082840390508091505092915050565b606060026040519080825280602002602001820160405280156155805781602001602082028038833980820191505090505b5090508281600081518110151561559357fe5b9060200190602002018181525050818160018151811015156155b157fe5b906020019060200201818152505092915050565b6000808284019050838110156040805190810160405280601181526020017f4d4154485f4144445f4f564552464c4f570000000000000000000000000000008152509015156156af576040517f08c379a00000000000000000000000000000000000000000000000000000000081526004018080602001828103825283818151815260200191508051906020019080838360005b83811015615674578082015181840152602081019050615659565b50505050905090810190601f1680156156a15780820380516001836020036101000a031916815260200191505b509250505060405180910390fd5b508091505092915050565b6000806000806040516020818751602089018a5afa925060008311156156df57805191505b5081819350935050509250929050565b6000806040516020818551602087016000895af16000811115615735573d60008114615722576020811461572b57615733565b60019350615733565b600183511493505b505b50508091505092915050565b8082555050565b600080600084141561575d5760009150615853565b828402905082848281151561576e57fe5b04146040805190810160405280601181526020017f4d4154485f4d554c5f4f564552464c4f5700000000000000000000000000000081525090151561584e576040517f08c379a00000000000000000000000000000000000000000000000000000000081526004018080602001828103825283818151815260200191508051906020019080838360005b838110156158135780820151818401526020810190506157f8565b50505050905090810190601f1680156158405780820380516001836020036101000a031916815260200191505b509250505060405180910390fd5b508091505b50929150505600a165627a7a72305820ab5305c0561eb5624f0a0fbfd4f05a855a002dec9272b31cc5bd1ff6ffe927c30029",
  "source": "/*\n * SPDX-License-Identitifer:    GPL-3.0-or-later\n */\n\n/* solium-disable function-order */\n\npragma solidity 0.4.24;\n\nimport \"@aragon/os/contracts/apps/AragonApp.sol\";\nimport \"@aragon/os/contracts/common/IForwarder.sol\";\n\nimport \"@aragon/os/contracts/lib/math/SafeMath.sol\";\n\nimport \"@aragon/apps-shared-minime/contracts/ITokenController.sol\";\nimport \"@aragon/apps-shared-minime/contracts/MiniMeToken.sol\";\n\n\ncontract TokenManager is ITokenController, IForwarder, AragonApp {\n    using SafeMath for uint256;\n\n    bytes32 public constant MINT_ROLE = keccak256(\"MINT_ROLE\");\n    bytes32 public constant ISSUE_ROLE = keccak256(\"ISSUE_ROLE\");\n    bytes32 public constant ASSIGN_ROLE = keccak256(\"ASSIGN_ROLE\");\n    bytes32 public constant REVOKE_VESTINGS_ROLE = keccak256(\"REVOKE_VESTINGS_ROLE\");\n    bytes32 public constant BURN_ROLE = keccak256(\"BURN_ROLE\");\n\n    uint256 public constant MAX_VESTINGS_PER_ADDRESS = 50;\n\n    string private constant ERROR_CALLER_NOT_TOKEN = \"TM_CALLER_NOT_TOKEN\";\n    string private constant ERROR_NO_VESTING = \"TM_NO_VESTING\";\n    string private constant ERROR_TOKEN_CONTROLLER = \"TM_TOKEN_CONTROLLER\";\n    string private constant ERROR_MINT_RECEIVER_IS_TM = \"TM_MINT_RECEIVER_IS_TM\";\n    string private constant ERROR_VESTING_TO_TM = \"TM_VESTING_TO_TM\";\n    string private constant ERROR_TOO_MANY_VESTINGS = \"TM_TOO_MANY_VESTINGS\";\n    string private constant ERROR_WRONG_CLIFF_DATE = \"TM_WRONG_CLIFF_DATE\";\n    string private constant ERROR_VESTING_NOT_REVOKABLE = \"TM_VESTING_NOT_REVOKABLE\";\n    string private constant ERROR_REVOKE_TRANSFER_FROM_REVERTED = \"TM_REVOKE_TRANSFER_FROM_REVERTED\";\n    string private constant ERROR_CAN_NOT_FORWARD = \"TM_CAN_NOT_FORWARD\";\n    string private constant ERROR_BALANCE_INCREASE_NOT_ALLOWED = \"TM_BALANCE_INC_NOT_ALLOWED\";\n    string private constant ERROR_ASSIGN_TRANSFER_FROM_REVERTED = \"TM_ASSIGN_TRANSFER_FROM_REVERTED\";\n\n    struct TokenVesting {\n        uint256 amount;\n        uint64 start;\n        uint64 cliff;\n        uint64 vesting;\n        bool revokable;\n    }\n\n    // Note that we COMPLETELY trust this MiniMeToken to not be malicious for proper operation of this contract\n    MiniMeToken public token;\n    uint256 public maxAccountTokens;\n\n    // We are mimicing an array in the inner mapping, we use a mapping instead to make app upgrade more graceful\n    mapping (address => mapping (uint256 => TokenVesting)) internal vestings;\n    mapping (address => uint256) public vestingsLengths;\n\n    // Other token specific events can be watched on the token address directly (avoids duplication)\n    event NewVesting(address indexed receiver, uint256 vestingId, uint256 amount);\n    event RevokeVesting(address indexed receiver, uint256 vestingId, uint256 nonVestedAmount);\n\n    modifier onlyToken() {\n        require(msg.sender == address(token), ERROR_CALLER_NOT_TOKEN);\n        _;\n    }\n\n    modifier vestingExists(address _holder, uint256 _vestingId) {\n        // TODO: it's not checking for gaps that may appear because of deletes in revokeVesting function\n        require(_vestingId < vestingsLengths[_holder], ERROR_NO_VESTING);\n        _;\n    }\n\n    /**\n    * @notice Initialize Token Manager for `_token.symbol(): string`, whose tokens are `transferable ? 'not' : ''` transferable`_maxAccountTokens > 0 ? ' and limited to a maximum of ' + @tokenAmount(_token, _maxAccountTokens, false) + ' per account' : ''`\n    * @param _token MiniMeToken address for the managed token (Token Manager instance must be already set as the token controller)\n    * @param _transferable whether the token can be transferred by holders\n    * @param _maxAccountTokens Maximum amount of tokens an account can have (0 for infinite tokens)\n    */\n    function initialize(\n        MiniMeToken _token,\n        bool _transferable,\n        uint256 _maxAccountTokens\n    )\n        external\n        onlyInit\n    {\n        initialized();\n\n        require(_token.controller() == address(this), ERROR_TOKEN_CONTROLLER);\n\n        token = _token;\n        maxAccountTokens = _maxAccountTokens == 0 ? uint256(-1) : _maxAccountTokens;\n\n        if (token.transfersEnabled() != _transferable) {\n            token.enableTransfers(_transferable);\n        }\n    }\n\n    /**\n    * @notice Mint `@tokenAmount(self.token(): address, _amount, false)` tokens for `_receiver`\n    * @param _receiver The address receiving the tokens, cannot be the Token Manager itself (use `issue()` instead)\n    * @param _amount Number of tokens minted\n    */\n    function mint(address _receiver, uint256 _amount) external authP(MINT_ROLE, arr(_receiver, _amount)) {\n        require(_receiver != address(this), ERROR_MINT_RECEIVER_IS_TM);\n        _mint(_receiver, _amount);\n    }\n\n    /**\n    * @notice Mint `@tokenAmount(self.token(): address, _amount, false)` tokens for the Token Manager\n    * @param _amount Number of tokens minted\n    */\n    function issue(uint256 _amount) external authP(ISSUE_ROLE, arr(_amount)) {\n        _mint(address(this), _amount);\n    }\n\n    /**\n    * @notice Assign `@tokenAmount(self.token(): address, _amount, false)` tokens to `_receiver` from the Token Manager's holdings\n    * @param _receiver The address receiving the tokens\n    * @param _amount Number of tokens transferred\n    */\n    function assign(address _receiver, uint256 _amount) external authP(ASSIGN_ROLE, arr(_receiver, _amount)) {\n        _assign(_receiver, _amount);\n    }\n\n    /**\n    * @notice Burn `@tokenAmount(self.token(): address, _amount, false)` tokens from `_holder`\n    * @param _holder Holder of tokens being burned\n    * @param _amount Number of tokens being burned\n    */\n    function burn(address _holder, uint256 _amount) external authP(BURN_ROLE, arr(_holder, _amount)) {\n        // minime.destroyTokens() never returns false, only reverts on failure\n        token.destroyTokens(_holder, _amount);\n    }\n\n    /**\n    * @notice Assign `@tokenAmount(self.token(): address, _amount, false)` tokens to `_receiver` from the Token Manager's holdings with a `_revokable : 'revokable' : ''` vesting starting at `@formatDate(_start)`, cliff at `@formatDate(_cliff)` (first portion of tokens transferable), and completed vesting at `@formatDate(_vested)` (all tokens transferable)\n    * @param _receiver The address receiving the tokens, cannot be Token Manager itself\n    * @param _amount Number of tokens vested\n    * @param _start Date the vesting calculations start\n    * @param _cliff Date when the initial portion of tokens are transferable\n    * @param _vested Date when all tokens are transferable\n    * @param _revokable Whether the vesting can be revoked by the Token Manager\n    */\n    function assignVested(\n        address _receiver,\n        uint256 _amount,\n        uint64 _start,\n        uint64 _cliff,\n        uint64 _vested,\n        bool _revokable\n    )\n        external\n        authP(ASSIGN_ROLE, arr(_receiver, _amount))\n        returns (uint256)\n    {\n        require(_receiver != address(this), ERROR_VESTING_TO_TM);\n        require(vestingsLengths[_receiver] < MAX_VESTINGS_PER_ADDRESS, ERROR_TOO_MANY_VESTINGS);\n        require(_start <= _cliff && _cliff <= _vested, ERROR_WRONG_CLIFF_DATE);\n\n        uint256 vestingId = vestingsLengths[_receiver]++;\n        vestings[_receiver][vestingId] = TokenVesting(\n            _amount,\n            _start,\n            _cliff,\n            _vested,\n            _revokable\n        );\n\n        _assign(_receiver, _amount);\n\n        emit NewVesting(_receiver, vestingId, _amount);\n\n        return vestingId;\n    }\n\n    /**\n    * @notice Revoke vesting #`_vestingId` from `_holder`, returning unvested tokens to the Token Manager\n    * @param _holder Address whose vesting to revoke\n    * @param _vestingId Numeric id of the vesting\n    */\n    function revokeVesting(address _holder, uint256 _vestingId)\n        external\n        authP(REVOKE_VESTINGS_ROLE, arr(_holder))\n        vestingExists(_holder, _vestingId)\n    {\n        TokenVesting storage v = vestings[_holder][_vestingId];\n        require(v.revokable, ERROR_VESTING_NOT_REVOKABLE);\n\n        uint256 nonVested = _calculateNonVestedTokens(\n            v.amount,\n            getTimestamp(),\n            v.start,\n            v.cliff,\n            v.vesting\n        );\n\n        // To make vestingIds immutable over time, we just zero out the revoked vesting\n        // Clearing this out also allows the token transfer back to the Token Manager to succeed\n        delete vestings[_holder][_vestingId];\n\n        // transferFrom always works as controller\n        // onTransfer hook always allows if transfering to token controller\n        require(token.transferFrom(_holder, address(this), nonVested), ERROR_REVOKE_TRANSFER_FROM_REVERTED);\n\n        emit RevokeVesting(_holder, _vestingId, nonVested);\n    }\n\n    // ITokenController fns\n    // `onTransfer()`, `onApprove()`, and `proxyPayment()` are callbacks from the MiniMe token\n    // contract and are only meant to be called through the managed MiniMe token that gets assigned\n    // during initialization.\n\n    /*\n    * @dev Notifies the controller about a token transfer allowing the controller to decide whether\n    *      to allow it or react if desired (only callable from the token).\n    *      Initialization check is implicitly provided by `onlyToken()`.\n    * @param _from The origin of the transfer\n    * @param _to The destination of the transfer\n    * @param _amount The amount of the transfer\n    * @return False if the controller does not authorize the transfer\n    */\n    function onTransfer(address _from, address _to, uint256 _amount) external onlyToken returns (bool) {\n        return _isBalanceIncreaseAllowed(_to, _amount) && _transferableBalance(_from, getTimestamp()) >= _amount;\n    }\n\n    /**\n    * @dev Notifies the controller about an approval allowing the controller to react if desired\n    *      Initialization check is implicitly provided by `onlyToken()`.\n    * @return False if the controller does not authorize the approval\n    */\n    function onApprove(address, address, uint) external onlyToken returns (bool) {\n        return true;\n    }\n\n    /**\n    * @dev Called when ether is sent to the MiniMe Token contract\n    *      Initialization check is implicitly provided by `onlyToken()`.\n    * @return True if the ether is accepted, false for it to throw\n    */\n    function proxyPayment(address) external payable onlyToken returns (bool) {\n        return false;\n    }\n\n    // Forwarding fns\n\n    function isForwarder() external pure returns (bool) {\n        return true;\n    }\n\n    /**\n    * @notice Execute desired action as a token holder\n    * @dev IForwarder interface conformance. Forwards any token holder action.\n    * @param _evmScript Script being executed\n    */\n    function forward(bytes _evmScript) public {\n        require(canForward(msg.sender, _evmScript), ERROR_CAN_NOT_FORWARD);\n        bytes memory input = new bytes(0); // TODO: Consider input for this\n\n        // Add the managed token to the blacklist to disallow a token holder from executing actions\n        // on the token controller's (this contract) behalf\n        address[] memory blacklist = new address[](1);\n        blacklist[0] = address(token);\n\n        runScript(_evmScript, input, blacklist);\n    }\n\n    function canForward(address _sender, bytes) public view returns (bool) {\n        return hasInitialized() && token.balanceOf(_sender) > 0;\n    }\n\n    // Getter fns\n\n    function getVesting(\n        address _recipient,\n        uint256 _vestingId\n    )\n        public\n        view\n        vestingExists(_recipient, _vestingId)\n        returns (\n            uint256 amount,\n            uint64 start,\n            uint64 cliff,\n            uint64 vesting,\n            bool revokable\n        )\n    {\n        TokenVesting storage tokenVesting = vestings[_recipient][_vestingId];\n        amount = tokenVesting.amount;\n        start = tokenVesting.start;\n        cliff = tokenVesting.cliff;\n        vesting = tokenVesting.vesting;\n        revokable = tokenVesting.revokable;\n    }\n\n    function spendableBalanceOf(address _holder) public view isInitialized returns (uint256) {\n        return _transferableBalance(_holder, getTimestamp());\n    }\n\n    function transferableBalance(address _holder, uint256 _time) public view isInitialized returns (uint256) {\n        return _transferableBalance(_holder, _time);\n    }\n\n    /**\n    * @dev Disable recovery escape hatch for own token,\n    *      as the it has the concept of issuing tokens without assigning them\n    */\n    function allowRecoverability(address _token) public view returns (bool) {\n        return _token != address(token);\n    }\n\n    // Internal fns\n\n    function _assign(address _receiver, uint256 _amount) internal {\n        require(_isBalanceIncreaseAllowed(_receiver, _amount), ERROR_BALANCE_INCREASE_NOT_ALLOWED);\n        // Must use transferFrom() as transfer() does not give the token controller full control\n        require(token.transferFrom(address(this), _receiver, _amount), ERROR_ASSIGN_TRANSFER_FROM_REVERTED);\n    }\n\n    function _mint(address _receiver, uint256 _amount) internal {\n        require(_isBalanceIncreaseAllowed(_receiver, _amount), ERROR_BALANCE_INCREASE_NOT_ALLOWED);\n        token.generateTokens(_receiver, _amount); // minime.generateTokens() never returns false\n    }\n\n    function _isBalanceIncreaseAllowed(address _receiver, uint256 _inc) internal view returns (bool) {\n        // Max balance doesn't apply to the token manager itself\n        if (_receiver == address(this)) {\n            return true;\n        }\n        return token.balanceOf(_receiver).add(_inc) <= maxAccountTokens;\n    }\n\n    /**\n    * @dev Calculate amount of non-vested tokens at a specifc time\n    * @param tokens The total amount of tokens vested\n    * @param time The time at which to check\n    * @param start The date vesting started\n    * @param cliff The cliff period\n    * @param vested The fully vested date\n    * @return The amount of non-vested tokens of a specific grant\n    *  transferableTokens\n    *   |                         _/--------   vestedTokens rect\n    *   |                       _/\n    *   |                     _/\n    *   |                   _/\n    *   |                 _/\n    *   |                /\n    *   |              .|\n    *   |            .  |\n    *   |          .    |\n    *   |        .      |\n    *   |      .        |\n    *   |    .          |\n    *   +===+===========+---------+----------> time\n    *      Start       Cliff    Vested\n    */\n    function _calculateNonVestedTokens(\n        uint256 tokens,\n        uint256 time,\n        uint256 start,\n        uint256 cliff,\n        uint256 vested\n    )\n        private\n        pure\n        returns (uint256)\n    {\n        // Shortcuts for before cliff and after vested cases.\n        if (time >= vested) {\n            return 0;\n        }\n        if (time < cliff) {\n            return tokens;\n        }\n\n        // Interpolate all vested tokens.\n        // As before cliff the shortcut returns 0, we can just calculate a value\n        // in the vesting rect (as shown in above's figure)\n\n        // vestedTokens = tokens * (time - start) / (vested - start)\n        // In assignVesting we enforce start <= cliff <= vested\n        // Here we shortcut time >= vested and time < cliff,\n        // so no division by 0 is possible\n        uint256 vestedTokens = tokens.mul(time.sub(start)) / vested.sub(start);\n\n        // tokens - vestedTokens\n        return tokens.sub(vestedTokens);\n    }\n\n    function _transferableBalance(address _holder, uint256 _time) internal view returns (uint256) {\n        uint256 transferable = token.balanceOf(_holder);\n\n        // This check is not strictly necessary for the current version of this contract, as\n        // Token Managers now cannot assign vestings to themselves.\n        // However, this was a possibility in the past, so in case there were vestings assigned to\n        // themselves, this will still return the correct value (entire balance, as the Token\n        // Manager does not have a spending limit on its own balance).\n        if (_holder != address(this)) {\n            uint256 vestingsCount = vestingsLengths[_holder];\n            for (uint256 i = 0; i < vestingsCount; i++) {\n                TokenVesting storage v = vestings[_holder][i];\n                uint256 nonTransferable = _calculateNonVestedTokens(\n                    v.amount,\n                    _time,\n                    v.start,\n                    v.cliff,\n                    v.vesting\n                );\n                transferable = transferable.sub(nonTransferable);\n            }\n        }\n\n        return transferable;\n    }\n}\n",
  "sourcePath": "@aragon/apps-token-manager/contracts/TokenManager.sol",
  "compiler": {
    "name": "solc",
    "version": "0.4.24+commit.e67f0147.Emscripten.clang"
  },
  "schemaVersion": "2.0.1",
  "updatedAt": "2019-10-25T14:38:34.762Z"
}